:020000020000FC
:0200000033C00B
:0200040073C0C7
:0200080081C0B5
:02003800189519
:02004000189511
:020054002EC0BC
:1000680008E00EBF0FEF0DBFD1E0C0E100E2099339
:1000780001E00883209A5A9A5B9A0AE00093690083
:10008800E89AE99A00EA00937C0003E000937B0079
:1000980000E307BD0BE004BD02E000936E00789416
:1000A8000000000000000000FBCF80917900D1E043
:1000B800C0E1A991B8810FEFA01707E0B00731F0B0
:1000C800B7708D93B883AA9300001895002705BDD3
:1000D80003E000937A00D1E0C0E100E2099301E077
:1000E8000883189527D0F09908C00BEA00937A0086
:1000F8000DE005BD289AF09A1895002705BD2898A7
:10010800F098189517D0F19914C0D1E0C2E1A991DF
:10011800B881D1E0C0E1E991F881EA17FB0749F01D
:100128000FEFA01707E0B00721F00DE005BDF19A29
:100138001895189510E529B1207C09B1007C0217A3
:0A014800C9F71A95D1F7E09A08955F
:00000001FF
